{
  "contractName": "CampaignFactory",
  "abi": [
    {
      "constant": true,
      "inputs": [
        {
          "name": "",
          "type": "uint256"
        }
      ],
      "name": "deployedCampaignNames",
      "outputs": [
        {
          "name": "",
          "type": "string"
        }
      ],
      "payable": false,
      "stateMutability": "view",
      "type": "function",
      "signature": "0x63e8a6fa"
    },
    {
      "constant": true,
      "inputs": [
        {
          "name": "",
          "type": "uint256"
        }
      ],
      "name": "deployedCampaignContracts",
      "outputs": [
        {
          "name": "",
          "type": "address"
        }
      ],
      "payable": false,
      "stateMutability": "view",
      "type": "function",
      "signature": "0x998cf9a1"
    },
    {
      "constant": false,
      "inputs": [
        {
          "name": "name",
          "type": "string"
        },
        {
          "name": "minimum",
          "type": "uint256"
        }
      ],
      "name": "createCampaign",
      "outputs": [],
      "payable": false,
      "stateMutability": "nonpayable",
      "type": "function",
      "signature": "0xf102a67c"
    },
    {
      "constant": true,
      "inputs": [],
      "name": "getDeployedNames",
      "outputs": [
        {
          "name": "",
          "type": "string[]"
        }
      ],
      "payable": false,
      "stateMutability": "view",
      "type": "function",
      "signature": "0x71fddcb5"
    },
    {
      "constant": true,
      "inputs": [],
      "name": "getDeployedContracts",
      "outputs": [
        {
          "name": "",
          "type": "address[]"
        }
      ],
      "payable": false,
      "stateMutability": "view",
      "type": "function",
      "signature": "0xaa9a068f"
    }
  ],
  "bytecode": "0x608060405234801561001057600080fd5b50612159806100206000396000f3fe60806040526004361062000073576000357c0100000000000000000000000000000000000000000000000000000000900463ffffffff16806363e8a6fa146200007857806371fddcb514620000bc578063998cf9a114620000ec578063aa9a068f1462000130578063f102a67c1462000160575b600080fd5b3480156200008557600080fd5b50620000a460048036036200009e919081019062000683565b6200018e565b604051620000b391906200089c565b60405180910390f35b348015620000c957600080fd5b50620000d46200024e565b604051620000e3919062000878565b60405180910390f35b348015620000f957600080fd5b5062000118600480360362000112919081019062000683565b6200033d565b60405162000127919062000837565b60405180910390f35b3480156200013d57600080fd5b50620001486200037c565b60405162000157919062000854565b60405180910390f35b3480156200016d57600080fd5b506200018c600480360362000186919081019062000629565b6200040c565b005b6001818154811015156200019e57fe5b906000526020600020016000915090508054600181600116156101000203166002900480601f016020809104026020016040519081016040528092919081815260200182805460018160011615610100020316600290048015620002465780601f106200021a5761010080835404028352916020019162000246565b820191906000526020600020905b8154815290600101906020018083116200022857829003601f168201915b505050505081565b60606001805480602002602001604051908101604052809291908181526020016000905b8282101562000334578382906000526020600020018054600181600116156101000203166002900480601f0160208091040260200160405190810160405280929190818152602001828054600181600116156101000203166002900480156200031f5780601f10620002f3576101008083540402835291602001916200031f565b820191906000526020600020905b8154815290600101906020018083116200030157829003601f168201915b50505050508152602001906001019062000272565b50505050905090565b6000818154811015156200034d57fe5b906000526020600020016000915054906101000a900473ffffffffffffffffffffffffffffffffffffffff1681565b606060008054806020026020016040519081016040528092919081815260200182805480156200040257602002820191906000526020600020905b8160009054906101000a900473ffffffffffffffffffffffffffffffffffffffff1673ffffffffffffffffffffffffffffffffffffffff1681526020019060010190808311620003b7575b5050505050905090565b60008282336200041b620004f5565b6200042993929190620008c0565b604051809103906000f08015801562000446573d6000803e3d6000fd5b50905060018390806001815401808255809150509060018203906000526020600020016000909192909190915090805190602001906200048892919062000506565b505060008190806001815401808255809150509060018203906000526020600020016000909192909190916101000a81548173ffffffffffffffffffffffffffffffffffffffff021916908373ffffffffffffffffffffffffffffffffffffffff16021790555050505050565b6040516116868062000a9a83390190565b828054600181600116156101000203166002900490600052602060002090601f016020900481019282601f106200054957805160ff19168380011785556200057a565b828001600101855582156200057a579182015b82811115620005795782518255916020019190600101906200055c565b5b5090506200058991906200058d565b5090565b620005b291905b80821115620005ae57600081600090555060010162000594565b5090565b90565b600082601f8301121515620005c957600080fd5b8135620005e0620005da8262000932565b62000904565b91508082526020830160208301858383011115620005fd57600080fd5b6200060a83828462000a43565b50505092915050565b6000620006218235620009fd565b905092915050565b600080604083850312156200063d57600080fd5b600083013567ffffffffffffffff8111156200065857600080fd5b6200066685828601620005b5565b9250506020620006798582860162000613565b9150509250929050565b6000602082840312156200069657600080fd5b6000620006a68482850162000613565b91505092915050565b620006ba8162000a07565b82525050565b620006cb81620009bf565b82525050565b6000620006de8262000979565b808452602084019350620006f2836200095f565b60005b828110156200072a576200070b868351620006c0565b6200071682620009a5565b9150602086019550600181019050620006f5565b50849250505092915050565b6000620007438262000984565b808452602084019350836020820285016200075e856200096c565b60005b848110156200079d5783830388526200077c838351620007ea565b92506200078982620009b2565b915060208801975060018101905062000761565b508196508694505050505092915050565b6000620007bb826200099a565b808452620007d181602086016020860162000a52565b620007dc8162000a88565b602085010191505092915050565b6000620007f7826200098f565b8084526200080d81602086016020860162000a52565b620008188162000a88565b602085010191505092915050565b6200083181620009f3565b82525050565b60006020820190506200084e6000830184620006c0565b92915050565b60006020820190508181036000830152620008708184620006d1565b905092915050565b6000602082019050818103600083015262000894818462000736565b905092915050565b60006020820190508181036000830152620008b88184620007ea565b905092915050565b60006060820190508181036000830152620008dc8186620007ae565b9050620008ed602083018562000826565b620008fc6040830184620006af565b949350505050565b6000604051905081810181811067ffffffffffffffff821117156200092857600080fd5b8060405250919050565b600067ffffffffffffffff8211156200094a57600080fd5b601f19601f8301169050602081019050919050565b6000602082019050919050565b6000602082019050919050565b600081519050919050565b600081519050919050565b600081519050919050565b600081519050919050565b6000602082019050919050565b6000602082019050919050565b6000620009cc82620009d3565b9050919050565b600073ffffffffffffffffffffffffffffffffffffffff82169050919050565b6000819050919050565b6000819050919050565b600062000a148262000a1b565b9050919050565b600062000a288262000a2f565b9050919050565b600062000a3c82620009d3565b9050919050565b82818337600083830152505050565b60005b8381101562000a7257808201518184015260208101905062000a55565b8381111562000a82576000848401525b50505050565b6000601f19601f830116905091905056fe60806040523480156200001157600080fd5b5060405162001686380380620016868339810180604052620000379190810190620001da565b82600590805190602001906200004f929190620000a1565b5080600160006101000a81548173ffffffffffffffffffffffffffffffffffffffff021916908373ffffffffffffffffffffffffffffffffffffffff1602179055508160028190555050505062000318565b828054600181600116156101000203166002900490600052602060002090601f016020900481019282601f10620000e457805160ff191683800117855562000115565b8280016001018555821562000115579182015b8281111562000114578251825591602001919060010190620000f7565b5b50905062000124919062000128565b5090565b6200014d91905b80821115620001495760008160009055506001016200012f565b5090565b90565b60006200015e8251620002c4565b905092915050565b600082601f83011215156200017a57600080fd5b8151620001916200018b8262000277565b62000249565b91508082526020830160208301858383011115620001ae57600080fd5b620001bb838284620002e2565b50505092915050565b6000620001d28251620002d8565b905092915050565b600080600060608486031215620001f057600080fd5b600084015167ffffffffffffffff8111156200020b57600080fd5b620002198682870162000166565b93505060206200022c86828701620001c4565b92505060406200023f8682870162000150565b9150509250925092565b6000604051905081810181811067ffffffffffffffff821117156200026d57600080fd5b8060405250919050565b600067ffffffffffffffff8211156200028f57600080fd5b601f19601f8301169050602081019050919050565b600073ffffffffffffffffffffffffffffffffffffffff82169050919050565b6000620002d182620002a4565b9050919050565b6000819050919050565b60005b8381101562000302578082015181840152602081019050620002e5565b8381111562000312576000848401525b50505050565b61135e80620003286000396000f3fe6080604052600436106100ba576000357c0100000000000000000000000000000000000000000000000000000000900463ffffffff16806303441006146100bf5780630a144391146100db5780633fad183414610118578063481c6a7514610143578063545569ba1461016e57806381d12c581461019957806382fde093146101da5780638a9cfd5514610205578063937e09b114610221578063a00c96d71461024c578063d7bb99ba1461027c578063d7d1bbdb14610286575b600080fd5b6100d960048036036100d49190810190610d09565b6102a2565b005b3480156100e757600080fd5b5061010260048036036100fd9190810190610c79565b61048e565b60405161010f9190611144565b60405180910390f35b34801561012457600080fd5b5061012d6104a6565b60405161013a9190611144565b60405180910390f35b34801561014f57600080fd5b506101586104b2565b604051610165919061100d565b60405180910390f35b34801561017a57600080fd5b506101836104d8565b6040516101909190611028565b60405180910390f35b3480156101a557600080fd5b506101c060048036036101bb9190810190610d09565b61065f565b6040516101d195949392919061104a565b60405180910390f35b3480156101e657600080fd5b506101ef610769565b6040516101fc9190611144565b60405180910390f35b61021f600480360361021a9190810190610ca2565b61076f565b005b34801561022d57600080fd5b5061023661088a565b6040516102439190611144565b60405180910390f35b34801561025857600080fd5b50610261610890565b6040516102739695949392919061115f565b60405180910390f35b61028461094b565b005b6102a0600480360361029b9190810190610d09565b6109ea565b005b600160009054906101000a900473ffffffffffffffffffffffffffffffffffffffff1673ffffffffffffffffffffffffffffffffffffffff163373ffffffffffffffffffffffffffffffffffffffff16141515610334576040517f08c379a000000000000000000000000000000000000000000000000000000000815260040161032b906110a4565b60405180910390fd5b6000808281548110151561034457fe5b90600052602060002090600402019050600260045481151561036257fe5b0481600301541115156103aa576040517f08c379a00000000000000000000000000000000000000000000000000000000081526004016103a190611124565b60405180910390fd5b8060020160149054906101000a900460ff161515156103fe576040517f08c379a00000000000000000000000000000000000000000000000000000000081526004016103f5906110c4565b60405180910390fd5b8060020160009054906101000a900473ffffffffffffffffffffffffffffffffffffffff1673ffffffffffffffffffffffffffffffffffffffff166108fc82600101549081150290604051600060405180830381858888f1935050505015801561046c573d6000803e3d6000fd5b5060018160020160146101000a81548160ff0219169083151502179055505050565b60036020528060005260406000206000915090505481565b60008080549050905090565b600160009054906101000a900473ffffffffffffffffffffffffffffffffffffffff1681565b60606000805480602002602001604051908101604052809291908181526020016000905b82821015610656578382906000526020600020906004020160a06040519081016040529081600082018054600181600116156101000203166002900480601f0160208091040260200160405190810160405280929190818152602001828054600181600116156101000203166002900480156105b95780601f1061058e576101008083540402835291602001916105b9565b820191906000526020600020905b81548152906001019060200180831161059c57829003601f168201915b50505050508152602001600182015481526020016002820160009054906101000a900473ffffffffffffffffffffffffffffffffffffffff1673ffffffffffffffffffffffffffffffffffffffff1673ffffffffffffffffffffffffffffffffffffffff1681526020016002820160149054906101000a900460ff16151515158152602001600382015481525050815260200190600101906104fc565b50505050905090565b60008181548110151561066e57fe5b9060005260206000209060040201600091509050806000018054600181600116156101000203166002900480601f01602080910402602001604051908101604052809291908181526020018280546001816001161561010002031660029004801561071a5780601f106106ef5761010080835404028352916020019161071a565b820191906000526020600020905b8154815290600101906020018083116106fd57829003601f168201915b5050505050908060010154908060020160009054906101000a900473ffffffffffffffffffffffffffffffffffffffff16908060020160149054906101000a900460ff16908060030154905085565b60045481565b610777610afa565b60a0604051908101604052808581526020018481526020018373ffffffffffffffffffffffffffffffffffffffff16815260200160001515815260200160008152509050600081908060018154018082558091505090600182039060005260206000209060040201600090919290919091506000820151816000019080519060200190610805929190610b42565b506020820151816001015560408201518160020160006101000a81548173ffffffffffffffffffffffffffffffffffffffff021916908373ffffffffffffffffffffffffffffffffffffffff16021790555060608201518160020160146101000a81548160ff0219169083151502179055506080820151816003015550505050505050565b60025481565b60008060008060008060003373ffffffffffffffffffffffffffffffffffffffff16600160009054906101000a900473ffffffffffffffffffffffffffffffffffffffff1673ffffffffffffffffffffffffffffffffffffffff161490506002543073ffffffffffffffffffffffffffffffffffffffff1631600080549050600454600160009054906101000a900473ffffffffffffffffffffffffffffffffffffffff168596509650965096509650965050909192939495565b60025434111515610991576040517f08c379a0000000000000000000000000000000000000000000000000000000008152600401610988906110e4565b60405180910390fd5b6001600360003373ffffffffffffffffffffffffffffffffffffffff1673ffffffffffffffffffffffffffffffffffffffff16815260200190815260200160002081905550600460008154809291906001019190505550565b600160009054906101000a900473ffffffffffffffffffffffffffffffffffffffff1673ffffffffffffffffffffffffffffffffffffffff163373ffffffffffffffffffffffffffffffffffffffff1614151515610a7d576040517f08c379a0000000000000000000000000000000000000000000000000000000008152600401610a7490611104565b60405180910390fd5b60008082815481101515610a8d57fe5b9060005260206000209060040201905080600301600081548092919060010191905055506002600360003373ffffffffffffffffffffffffffffffffffffffff1673ffffffffffffffffffffffffffffffffffffffff168152602001908152602001600020819055505050565b60a0604051908101604052806060815260200160008152602001600073ffffffffffffffffffffffffffffffffffffffff168152602001600015158152602001600081525090565b828054600181600116156101000203166002900490600052602060002090601f016020900481019282601f10610b8357805160ff1916838001178555610bb1565b82800160010185558215610bb1579182015b82811115610bb0578251825591602001919060010190610b95565b5b509050610bbe9190610bc2565b5090565b610be491905b80821115610be0576000816000905550600101610bc8565b5090565b90565b6000610bf382356112a3565b905092915050565b6000610c0782356112b5565b905092915050565b600082601f8301121515610c2257600080fd5b8135610c35610c30826111ed565b6111c0565b91508082526020830160208301858383011115610c5157600080fd5b610c5c8382846112d1565b50505092915050565b6000610c7182356112c7565b905092915050565b600060208284031215610c8b57600080fd5b6000610c9984828501610be7565b91505092915050565b600080600060608486031215610cb757600080fd5b600084013567ffffffffffffffff811115610cd157600080fd5b610cdd86828701610c0f565b9350506020610cee86828701610c65565b9250506040610cff86828701610bfb565b9150509250925092565b600060208284031215610d1b57600080fd5b6000610d2984828501610c65565b91505092915050565b610d3b8161125b565b82525050565b610d4a81611249565b82525050565b6000610d5b82611226565b80845260208401935083602082028501610d7485611219565b60005b84811015610dad578383038852610d8f838351610f88565b9250610d9a8261123c565b9150602088019750600181019050610d77565b508196508694505050505092915050565b610dc78161126d565b82525050565b6000610dd882611231565b808452610dec8160208601602086016112e0565b610df581611313565b602085010191505092915050565b6000601782527f4f6e6c79206d616e6167657220686173206163636573730000000000000000006020830152604082019050919050565b6000602882527f4974207365656d73207265717565737420616c7265616479206265656e20666960208301527f6e616c697a65642e0000000000000000000000000000000000000000000000006040830152606082019050919050565b6000601682527f52657175697265206d696e696d756d20616d6f756e74000000000000000000006020830152604082019050919050565b6000602f82527f4d616e6167657220646f65736e277420686176652072696768747320746f206160208301527f7070726f766520726571756573742e00000000000000000000000000000000006040830152606082019050919050565b6000602182527f52657175697265206d6f7265206e756d626572206f6620617070726f76616c7360208301527f2e000000000000000000000000000000000000000000000000000000000000006040830152606082019050919050565b600060a0830160008301518482036000860152610fa58282610dcd565b9150506020830151610fba6020860182610ffe565b506040830151610fcd6040860182610d32565b506060830151610fe06060860182610dbe565b506080830151610ff36080860182610ffe565b508091505092915050565b61100781611299565b82525050565b60006020820190506110226000830184610d41565b92915050565b600060208201905081810360008301526110428184610d50565b905092915050565b600060a08201905081810360008301526110648188610dcd565b90506110736020830187610ffe565b6110806040830186610d32565b61108d6060830185610dbe565b61109a6080830184610ffe565b9695505050505050565b600060208201905081810360008301526110bd81610e03565b9050919050565b600060208201905081810360008301526110dd81610e3a565b9050919050565b600060208201905081810360008301526110fd81610e97565b9050919050565b6000602082019050818103600083015261111d81610ece565b9050919050565b6000602082019050818103600083015261113d81610f2b565b9050919050565b60006020820190506111596000830184610ffe565b92915050565b600060c0820190506111746000830189610ffe565b6111816020830188610ffe565b61118e6040830187610ffe565b61119b6060830186610ffe565b6111a86080830185610d41565b6111b560a0830184610dbe565b979650505050505050565b6000604051905081810181811067ffffffffffffffff821117156111e357600080fd5b8060405250919050565b600067ffffffffffffffff82111561120457600080fd5b601f19601f8301169050602081019050919050565b6000602082019050919050565b600081519050919050565b600081519050919050565b6000602082019050919050565b600061125482611279565b9050919050565b600061126682611279565b9050919050565b60008115159050919050565b600073ffffffffffffffffffffffffffffffffffffffff82169050919050565b6000819050919050565b60006112ae82611279565b9050919050565b60006112c082611279565b9050919050565b6000819050919050565b82818337600083830152505050565b60005b838110156112fe5780820151818401526020810190506112e3565b8381111561130d576000848401525b50505050565b6000601f19601f830116905091905056fea265627a7a72305820507af9bbe1cf647b10f7f3b471e0cb38d0dbc64d09263bddaf97c0066dd4a6de6c6578706572696d656e74616cf50037a265627a7a72305820eecdde9cf06c7edb4043cac389d3c003b753ccd076b2d91343ed0902ae95aece6c6578706572696d656e74616cf50037",
  "source": "pragma solidity >=0.5.0 <0.8.0;\r\npragma experimental ABIEncoderV2;\r\n\r\ncontract CampaignFactory {\r\n    address[] public deployedCampaignContracts;\r\n    string[] public deployedCampaignNames;\r\n\r\n    function createCampaign(string memory name, uint256 minimum) public {\r\n        address contractAddress = address(new Campaign(name, minimum, msg.sender));\r\n        deployedCampaignNames.push(name);\r\n        deployedCampaignContracts.push(contractAddress);\r\n    }\r\n\r\n    function getDeployedNames() public view returns (string[] memory) {\r\n        return deployedCampaignNames;\r\n    }\r\n\r\n    function getDeployedContracts() public view returns (address[] memory) {\r\n        return deployedCampaignContracts;\r\n    }\r\n}\r\n\r\ncontract Campaign {\r\n    struct Request {\r\n        string description;\r\n        uint256 value;\r\n        address payable recipient;\r\n        bool complete;\r\n        uint256 approvalCount;\r\n    }\r\n\r\n    Request[] public requests;\r\n    address public manager;\r\n    uint256 public minimumContribution;\r\n    //address[] public approvers;\r\n    mapping(address => uint256) public approvers;\r\n    uint256 public approversCount;\r\n    string campaignName;\r\n\r\n    modifier _onlyManager() {\r\n        require(msg.sender == manager, \"Only manager has access\");\r\n        _;\r\n    }\r\n\r\n    constructor(string memory name, uint256 _minimum, address _owner) public {\r\n        campaignName = name;\r\n        manager = _owner;\r\n        minimumContribution = _minimum;\r\n    }\r\n\r\n    function contribute() public payable {\r\n        require(msg.value > minimumContribution, \"Require minimum amount\");\r\n        // approvers.push(msg.sender);\r\n        approvers[msg.sender] = 1;\r\n        approversCount++;\r\n    }\r\n\r\n    function createRequest(\r\n        string memory _description,\r\n        uint256 _value,\r\n        address payable _recipient\r\n    ) public payable {\r\n        Request memory newReq = Request({\r\n            description: _description,\r\n            value: _value,\r\n            recipient: _recipient,\r\n            complete: false,\r\n            approvalCount: 0\r\n        });\r\n\r\n        requests.push(newReq);\r\n    }\r\n\r\n    function approveRequest(uint256 index) public payable {\r\n        require(\r\n            msg.sender != manager,\r\n            \"Manager doesn't have rights to approve request.\"\r\n        );\r\n        // require(\r\n        //     approvers[msg.sender] == 1,\r\n        //     \"It seems you have already approved request.\"\r\n        // );\r\n\r\n        Request storage request = requests[index];\r\n        request.approvalCount++;\r\n        approvers[msg.sender] = 2;\r\n    }\r\n\r\n    function finalizeRequest(uint256 index) public payable _onlyManager {\r\n        Request storage request = requests[index];\r\n\r\n        require(\r\n            request.approvalCount > (approversCount / 2),\r\n            \"Require more number of approvals.\"\r\n        );\r\n        require(!request.complete, \"It seems request already been finalized.\");\r\n\r\n        request.recipient.transfer(request.value);\r\n        request.complete = true;\r\n    }\r\n\r\n    function getCampaignSummary()\r\n        public\r\n        view\r\n        returns (\r\n            uint256,\r\n            uint256,\r\n            uint256,\r\n            uint256,\r\n            address,\r\n            bool\r\n        )\r\n    {\r\n        bool isManager = manager == msg.sender;\r\n        return (\r\n            minimumContribution,\r\n            address(this).balance,\r\n            requests.length,\r\n            approversCount,\r\n            manager,\r\n            isManager\r\n        );\r\n    }\r\n\r\n    function getAllRequest() public view returns (Request[] memory) {\r\n        return requests;\r\n    }\r\n\r\n    function getRequestCount() public view returns (uint256) {\r\n        return requests.length;\r\n    }\r\n}\r\n",
  "sourcePath": "C:/Users/Akash/Desktop/4/Campaign-Starter-DAPP/contracts/Campaign.sol",
  "compiler": {
    "name": "solc",
    "version": "0.5.0+commit.1d4f565a.Emscripten.clang"
  },
  "schemaVersion": "3.0.1",
  "updatedAt": "2022-04-01T07:45:29.122Z",
  "devdoc": {
    "methods": {}
  },
  "userdoc": {
    "methods": {}
  }
}